:020000040800F2
:1000000000040020E3010008F1010008F3010008EA
:10001000F5010008F7010008F901000800000000E0
:10002000000000000000000000000000FB010008CC
:10003000FD01000800000000FF01000801020008A7
:10004000030200080302000803020008030200087C
:10005000030200080302000803020008030200086C
:10006000030200080302000803020008030200085C
:10007000030200080302000803020008030200084C
:10008000030200080302000803020008030200083C
:10009000030200080302000803020008030200082C
:1000A000030200080302000803020008030200081C
:1000B000030200080302000803020008030200080C
:1000C00003020008030200080302000803020008FC
:1000D000030200085F08000803020008030200088A
:1000E00003020008030200080302000803020008DC
:1000F00003020008030200080302000803020008CC
:1001000003020008030200080302000803020008BB
:1001100003020008030200080302000803020008AB
:10012000030200080302000803020008030200089B
:1001300000F002F800F03FF80AA090E8000C8244BA
:100140008344AAF10107DA4501D100F034F8AFF297
:10015000090EBAE80F0013F0010F18BFFB1A43F0A5
:10016000010318475C1300007C130000103A24BF01
:1001700078C878C1FAD8520724BF30C830C144BF0C
:1001800004680C607047000000230024002500264E
:10019000103A28BF78C1FBD8520728BF30C148BFEA
:1001A0000B607047642900F0C185002070471FB5BF
:1001B0001FBD10B510BD00F081FE1146FFF7F7FF1F
:1001C00000F032F800F09FFE03B4FFF7F2FF03BC2B
:1001D00000F036FB30BF72B662B680F30888704715
:1001E00070470B4880470B4981F308880A4800474D
:1001F000FEE7FEE7FEE7FEE7FEE7FEE7FEE7FEE7D7
:10020000FEE7FEE705480649044A064B7047000032
:10021000E1010008001800203101000870000020F2
:100220000018002000100020584D002600274FF035
:1002300000080024092000F0A8FA4FF416514820C5
:1002400000F025FB482000F035F900F097FB002076
:100250004F49086041F2883000F064F941F288307B
:1002600000F060F991E04948406800F07F40B0F14B
:10027000006F02D1454800F0ECFC44480068454955
:100280000840B0F1005FEDD043A000F00FFD4BA09F
:1002900000F00CFD53A000F009FD75E0002E27D101
:1002A0005D480078412807D15CA000F0FFFC0020E9
:1002B00064490880012667E057480078452862D1E4
:1002C00061A000F0F3FC00205E4908802F484068E0
:1002D00000F07F40B0F1006F03D12C4800F0B9FC72
:1002E00051E061A000F0E2FC66A000F0DFFC4AE013
:1002F000002E48D05348008804280BD154B94648F2
:100300000768394664A000F0D1FC00204D49088000
:10031000012439E04B480088B0F5806F10D1012CE2
:100320000ED108F1010000F0FF08A2023A49284668
:1003300000F05EFC05F5806500204249088023E05E
:10034000012000EB972108F1010081421BD13D48BB
:100350000088002817DD012C15D13A4802882E4963
:10036000284600F045FC0020364908808046504869
:1003700000F09CFC0026054D0024642000F0D2F81B
:10038000284600F066FC00BF88E76CE700300008F4
:10039000B40122420000FE2F0D2073746D333266CB
:1003A000313033633874362055706772616465206C
:1003B0004F6E6C696E65200D0A0000000D205072B2
:1003C000657373206B6579203120746F2073656EBF
:1003D00064207468652062696E2066696C65200D12
:1003E0000A0000000D205072657373206B65792040
:1003F0003220746F20656E746572207468652061A8
:1004000070706C69636174696F6E2070726F67726F
:10041000616D200D0A000000000400205374617219
:1004200074207472616E736D6974207468652061E4
:1004300070702062696E2066696C65202E2E2E0A0F
:10044000000000000A000020537461727420746878
:100450006520617070206170706C69636174696F90
:100460006E202E2E2E0A0000B7C7464C415348D3AB
:10047000A6D3C3B3CCD0F22CCEDEB7A8D6B4D0D09E
:10048000210D0A00496C6C6567616C20464C415334
:1004900048204150502100007468652066696C65F1
:1004A000206C656E677468203D20256400000000A4
:1004B000641400084FF0E021096921F004014FF0B5
:1004C000E0221161C21700EB5272C2F3C702234B44
:1004D0001A701946097801EB4102C2EBC1114FF6BF
:1004E000FF7202EAC1011E4A1180704701461B4A91
:1004F00012784A434FF0E0235A6100229A610122A8
:100500001A6100BF4FF0E022106900F001021AB139
:1005100000F48032002AF5D000224FF0E0231A6167
:100520009A61704701460E4A12884A434FF0E02311
:100530005A6100229A6101221A6100BF4FF0E02245
:10054000106900F001021AB100F48032002AF5D0DF
:1005500000224FF0E0231A619A61704700000020EA
:1005600002000020AA4A0A400243AA4B1A607047C0
:100570000146072323EA01021202A64B1B1D18683D
:100580004FF6FF031840A44B18431043A14B1B1D0B
:10059000186070472DE9F0478046894614461D468D
:1005A0002046E11704EB9171C1F3870AE11704EBD0
:1005B00091718910A4EB8101CFB2042000EBC70038
:1005C000C7B22846FFF7D4FFC5F1040008FA00F6C9
:1005D0000F20284100EA0900064306F00F06202CF0
:1005E00009DA8E4801680120A04001434FF0E02065
:1005F000C0F800110BE08948001D0068A4F120013B
:1006000001228A4010434FF0E021C1F804018448E0
:1006100050F82A0006FA07F10843814941F82A00F8
:10062000BDE8F08770B504460B46CE1701EB967611
:10063000C6F38700CE1701EB9676B610A1EB8606BF
:10064000B606350E774B9B6943F00103754EB361D7
:100650004FEAB63353F820300F26AE40B343724E04
:1006600046F82030334653F8203004FA05F61E438E
:100670006D4B43F820606D4B1B6801268E40334361
:100680006A4E336002F0010343B1684B0C331B68C0
:1006900001268E403343654E0C36336002F0020370
:1006A00043B1624B08331E6801238B401E435F4BEE
:1006B00008331E6070BD00B500205A490861C8604B
:1006C0001420486100208861C8610846006840F035
:1006D0000100086008464068554908405149486093
:1006E00008460068534908404E49086008460068BB
:1006F00020F4802008600846406820F4FE0048602E
:100700000020886000214FF00060FFF72BFF00BD44
:1007100010B540480830006840F004003D490831F9
:1007200008604048C06940F080503E49C861424876
:10073000406840F48070404948600846006840F0D6
:10074000040008600846006840F002000860FFF7F7
:1007500041FD10BD3048001D2E49091D086070473D
:10076000014649062F4A926942F001022D4B9A61D7
:100770002D4A083A526822F0E0622B4B083B5A603F
:100780001A4652680A435A60704730B5044600253D
:10079000FFF791FF2348006840F48030214908604A
:1007A00000BF20480068400C0028FAD04FF4806059
:1007B0001C494860A01EC4B20846406840EA844014
:1007C00048600846406840F4803048601B48006834
:1007D00040F03200194908601248006840F080700B
:1007E0001049086000BF0F480068400E0028FAD08A
:1007F0000C48406840F002000A49486005E009489A
:100800004068C0F3870505F00305022DF7D130BD20
:1008100080FFFF1F08ED00E00000FA0500E100E0A6
:1008200000E400E000100240080001400004014024
:100830000000FFF8FFFFF6FE0070004000200240BD
:10084000014600BF704700BF464A128802F04002CE
:10085000002AF9D0C2B2434B1B1D1A807047414990
:10086000098801F0200189B13E49091D0988C8B2F3
:100870003D490988B1F5806F08DA3C493A4A128847
:10088000885439490988491C374A118070472DE935
:10089000F05F05460E46300100F084FC8146344985
:1008A00005FB01F000F07EFC8246494600F098FB13
:1008B0000746384600F056FC84B2204600F072FC31
:1008C0008346394600F04EFD82464FF0834100F0EA
:1008D0007DFC814600F046FC80464FF6FF7000EA42
:1008E000041404EB080084B22248806940F004003C
:1008F000204988610846806940F4804088611E482C
:10090000006820F47F601C4908600846006840F4D5
:100910000B6008601748C06840F480401549C86003
:100920000846C06820F48040C8600E480830048043
:10093000001D008842F20C0108430A490C3108806E
:100940000846008840F4807008800846008840F01F
:10095000200008800223252203210846FFF71AFE03
:10096000BDE8F09F003801400A000020000400208C
:1009700040420F0000100240040801400B4880690B
:1009800040F01000094988610948406820F470006F
:10099000074948600846406840F4401048600846EF
:1009A000C06840F40050C86070470000001002406A
:1009B0000010014089488A4948608A484860704769
:1009C0008748006940F08000854908617047844885
:1009D000C16801F0010008B10120704701F0040076
:1009E00008B10220F9E701F0100008B10320F4E794
:1009F0000020F2E770B5044600BFFFF7E8FF0546A8
:100A0000012D00D006E00120FFF770FD601E84B2CA
:100A1000002CF2D100BF04B9FF25284670BD70B587
:100A20000546002445F6FF70FFF7E4FF0446C4B90D
:100A30006B48006940F00200694908610846456159
:100A4000006940F04000086145F6FF70FFF7D2FFF3
:100A50000446012C05D06248006920F0020060497C
:100A60000861204670BD70B505460E46FF20FFF7B1
:100A7000C1FF044694B95A48006940F00100584942
:100A800008612E80FF20FFF7B5FF0446012C05D03A
:100A90005348006920F0010051490861204670BDAB
:100AA0000146088870472DE9F04105460E46174675
:100AB000002407E036F814102846FFF7D4FFAD1CD9
:100AC000601C84B2BC42F5DBBDE8F08130B5034662
:100AD0000C461546002207E01846FFF7E1FF24F810
:100AE00012009B1C501C82B2AA42F5DB30BD2DE9DE
:100AF000F05F80468A461746B8F1006F02D33A4845
:100B0000804501D3BDE8F09FFFF754FFA8F1006BCB
:100B10004FEA9B25CBF34809C9F50074A74200DCD6
:100B20003C464DE04FF0006101EB85208A142F49CF
:100B3000FFF7CCFF00260BE009EB06002B4931F84C
:100B400010004FF6FF71884200D003E0701C86B29F
:100B5000A642F1DB00BFA6421BDA4FF0006101EBB9
:100B60008520FFF75CFF002608E03AF8160006EB48
:100B700009011E4A22F81100701C86B2A642F4DB5D
:100B80004FF0006101EB85208A141849FFF78BFFB5
:100B900004E0224651464046FFF785FFA74200D1B8
:100BA0000FE06D1C4FF000090AEB440AA044381B0B
:100BB00087B2B7F5007F02DD4FF4007400E03C46D9
:100BC000B0E700BFFFF7FCFE00BF9BE713B504468C
:100BD000012201A92046FFF78AFF1CBD23016745BA
:100BE00000200240AB89EFCD000001080008002082
:100BF0002DE9F05F06460F4690460024B3463D4679
:100C0000A1461CE068784FEA002A287850441FFA71
:100C100080FAAD1C2046611C8CB21E4921F810A040
:100C2000B4F5007F07D100244FF400725846FFF757
:100C30005EFF0BF5806B09F102001FFA80F9C145D8
:100C4000E0D324B1224613495846FFF750FFBDE8D0
:100C5000F09F70B50446002520680F490840B0F1A8
:100C6000005F15D160680D49086000BF08E04FF0D3
:100C7000FF310B4840F825100A4840F825106D1C3C
:100C8000082DF4DB2068FFF7A8FA044800688047C5
:100C900070BD0000000C00200000FE2F0C000020A2
:100CA00080E100E080E200E0704700000FB40449FA
:100CB00010B503AA029800F0D3F810BC5DF814FB3D
:100CC000040000202DE9F0410E4604460020206279
:100CD0002046E168884730B3252805D0D4E90121B2
:100CE0009047206A401CF2E7E168204600278847C9
:100CF000050018D0A5F14100192802D820354FF47D
:100D000000673246294620462760FFF74BFA40B17C
:100D1000012804D0F61D26F007060836D8E7361D50
:100D2000D6E72846DAE7206ABDE8F0812DE9F041F0
:100D30000646002410687529314616A510D0AFF379
:100D40000080002802DA404213A507E031688A07D4
:100D500001D512A502E0490704D511A5012401E03F
:100D6000AFF3008000210A2206F1240709E0B0FB5E
:100D7000F2FCB0FBF2F302FB1C0030307854184652
:100D8000491C0028F3D123462A463046BDE8F041ED
:100D900000F00CB8000000002D0000002B00000047
:100DA0002000000070477047704770472DE9F047FA
:100DB0000D4699469246044600F1240801688806CB
:100DC00004D5E06921F01001216000E00120A84273
:100DD00001DD471B00E00027A1697A1902EB090039
:100DE000081AA0612078C00602D42046AFF3008024
:100DF000002608E0D4E901211AF806009047206A8D
:100E0000401C761C20624E45F4DB2078C0060AD5D3
:100E10002046AFF3008006E0D4E90121302090475E
:100E2000206A401C2062381EA7F10107F4DC07E0AD
:100E3000D4E9012118F805009047206A401C20627F
:100E4000281EA5F10105F3DC2046AFF300802078D1
:100E5000000602D50220BDE8F0870120FBE7000074
:100E6000074B70B50D467B4400F011F80446284648
:100E700000F020F810B14FF0FF3070BD204670BD7B
:100E8000DDF9FFFF01694A1C02610878704700B56F
:100E90008FB0CDE901310021059105497944CDE9B3
:100EA000031011466846FFF70DFF0FB000BD0000AC
:100EB000E5FFFFFF007B00F080007047754600F003
:100EC00029F8AE4605006946534620F007008546DE
:100ED00018B020B5FFF796F9BDE820404FF00006A6
:100EE0004FF000074FF000084FF0000B21F0070112
:100EF000AC46ACE8C009ACE8C009ACE8C009ACE855
:100F0000C0098D4670470446AFF300802046FFF7C6
:100F10005BF90000004870471000002090EA010FC4
:100F200048BF81F0004100F12E82421A3CBF801A76
:100F300089184FEAD0524FF07F4C1CEA410FA2EBC8
:100F4000D15318BF9CEA026F00F03B804FF0004C79
:100F50004CEA00204CEA012121FA03FC10EB0C0CB6
:100F60001ED202F1FF325FEA1C2040EBC25038BFB4
:100F700070471CF07F0F4FEA400C18BFBCF17F4F49
:100F800038BF7047C3F12003994008BF20F001002B
:100F9000BCF17F4F38BF7047A0F1C04000F0DDB911
:100FA0004FEA3C00000A40EBC25028BF1CF0FF0F84
:100FB0004FEA400CE6D018BFBCF17F4F38BF7047F6
:100FC000EAE79CEA026F05D010EA5C0F08BF00F068
:100FD0000040704710B500F07AF900BF64FBBE3ED8
:100FE0004FF47F0C1CEAD0121EBF1CEAD11392EA08
:100FF0000C0F93EA0C0F00F0858090EA010F48BFB8
:1010000042F4807240F4000C41F400002CF07F4167
:1010100020F07F4000B58142A2EB03020FF2081CD2
:10102000ACEB504EC0F100009EF800E04FEA4E0ECF
:1010300000FB0EFC38BF49004FEA2C1C02F5FA02F7
:101040000CFB0EF34FEACE1E4FEA112C4FEAC121E2
:101050000EEB635E42EB22420EFB0CFC4FEA1C538C
:1010600000FB03114FEA112C4FEA01310EFB0CFC7F
:101070004FEADC4C00FB0C11C14228BF09184CEBB5
:1010800003335DF804EB10EB410143EBC250B2F5C2
:101090007C0F38BF704729D512F0F00F1CBF00F14C
:1010A000C04000F0004070470081828384858687BD
:1010B00088898B8C8D8E8F919293959697999A9C17
:1010C0009D9FA0A2A3A5A7A8AAACAEB0B2B3B5B786
:1010D000B9BCBEC0C2C5C7C9CCCED1D4D7D9DCDF5C
:1010E000E2E6E9ECF0F3F7FAFE0000004FEA400C0C
:1010F0000CF1807CBCF17E4F28BF7047B0F1C0403E
:1011000000F02BB990EA010F0CEAD11348BF42F46A
:101110008072624538BF634507D213F47F0F16D043
:1011200080EA010000F00040704710B500F0CFF8F1
:10113000097EFC3E00F005B880EA010000F00040A6
:10114000704780EA010000F0004000F006B912F498
:101150007F0F04BF0248704780EA010000F0FDB82D
:101160000000C07FC10DD1F19E0206DB4FEA0023D3
:1011700043F0004323FA02F07047004207D54FEADC
:101180004001B1F1FE4F02D24FF00000704710B5A0
:1011900000F09DF849922480002070476FEA2000FB
:1011A00070470000B0FA80F310FA03F2C3F19D0318
:1011B0000AD0D90501EB1220530638BF704700F161
:1011C000010008BF20F00100704700004FF47F0CC1
:1011D0001CEAD0121EBF1CEAD11392EA0C0F93EA4C
:1011E0000C0F00F0478090EA010F48BF42F4807274
:1011F0004FF0004C4CEA00204CEA012102EB0302C4
:10120000A0FB0113A2F50002002918BF43F001035F
:101210005B0028BF4FEA330342EB22425FEA132C04
:101220004CEBC2502EBFBCEB436FB2F57C0F704746
:101230004FEA036CBCF1004F08BF20F00100B2F58B
:101240007C0F38BF70470BD582F0FF0212F5803F4C
:10125000C8BF704700F1C040D8BF00F000407047E1
:1012600000F5000C5FEA4C0C48BF7047B0F1C0407D
:1012700000F073B890EA010F0CEAD11348BF42F4B2
:101280008072624538BF634504D280EA010000F0F5
:101290000040704710B500F01AF800BF8900013E09
:1012A00000F007B800F009B85FEA410C5FEA1C6C77
:1012B00008D080EA010000F050B85FEA400C5FEA15
:1012C0001C6CF6D14FF00040A0F5800070470EF185
:1012D000020E2EF0030E5EF8044B244204D44FEAB3
:1012E0004102B2F17F4F11D84FEA4003B3F17F4F73
:1012F0000CD80ED14FEAD07CB2F17F4F0CEB4C0CE6
:101300000CF1020C08BF4CEBD17C04E04FF0080C50
:1013100001E04FEAD17C0CEB4C0324FA03F404F017
:101320000704B4F1040C06D20EEB840CBDE81040A7
:101330004CF0010C6047DFE80CF0070802024FF0A8
:101340000040A0F5800010BD0846420018BFD2F151
:10135000807288BF00F0004010BDFF2141EAD050EC
:10136000C005704780F0004090EA010F7FF5DDADC9
:1013700081F0004100F007B890EA010F48BF81F00A
:1013800000413FF5D2AD421A04D882F00042A0EBF2
:10139000020011444FEAD0524FF07F4C1CEA410F3B
:1013A000A2EBD15318BF9CEA026F4AD04FF0004C19
:1013B0004CEA00204CEA012121FA03FCB0EB0C0CB2
:1013C0000FD412F0FE0F36D05FEA4C001DD500128C
:1013D00040EBC25038BF70471CF03F0F18BF70473A
:1013E0000BE0A2F101025FEA1C2040EBC25038BFC3
:1013F00070471CF07F0F18BF7047C3F1200399405E
:1014000014BF401E20F00100704780084FEA1223ED
:1014100008BF7047B0FA80FCA2EB0C02CCF1280C9C
:1014200060FA0CF093EA122F04BF00EBC250704731
:101430004FEAC3707047130A5FEADC1008BF7047B9
:10144000F6E79CEA026F04D010EA5C0F08BF0020A8
:10145000704710B5FFF73BFF40DFF63E81F00040DC
:101460007047000048617665207772697474656E14
:10147000207468652062696E2066696C6520746FEF
:10148000207468652066616C7368206E6F772C200D
:10149000706C656173652072657374617274207419
:1014A0006865204D4355206F722073656E64202758
:1014B000452720636F6D6D616E64202E2E2E2000F7
:1014C000E014000800000020100000006C0100087B
:1014D000F014000810000020F01700008801000838
:1014E00000000000000000000000000000000000FC
:0400000508000131BD
:00000001FF
